:020000040800F2
:100000001009002005030008FD3600081928000823
:10001000F9360008110400088D3A0008170300089B
:10002000000000000000000000000000C1390008CE
:10003000C90400080000000001370008C5390008A5
:100040002103000821030008210300082103000800
:1000500021030008210300082103000821030008F0
:1000600021030008210300082103000821030008E0
:1000700021030008210300082103000821030008D0
:1000800021030008210300082103000821030008C0
:1000900021030008210300082103000821030008B0
:1000A00021030008210300082103000821030008A0
:1000B00000000000210300082103000821030008BC
:1000C0002103000821030008210300082103000880
:1000D0002103000821030008210300082103000870
:1000E0002103000821030008210300082103000860
:1000F0002103000821030008210300082103000850
:10010000210300082103000821030008210300083F
:10011000210300082103000821030008210300082F
:10012000210300082103000821030008210300081F
:10013000210300082103000821030008210300080F
:1001400021030008210300082103000821030008FF
:1001500021030008210300082103000821030008EF
:1001600021030008210300082103000821030008DF
:1001700021030008210300082103000821030008CF
:1001800021030008210300082103000821030008BF
:1001900021030008210300082103000821030008AF
:1001A000210300082103000821030008210300089F
:1001B00021030008000000002103000821030008BB
:1001C00021030008000000002103000821030008AB
:1001D000210300082103000821030008210300086F
:1001E000210300082103000821030008210300085F
:1001F00000000000000000002103000821030008A7
:10020000210300082103000821030008210300083E
:10021000210300082103000821030008210300082E
:10022000210300082103000821030008210300081E
:10023000210300082103000800F002F800F052F842
:1002400014A696E8000CB244B344DA4501D100F09C
:1002500049F8BAE80F000FA696E83000A5EB0405B0
:1002600004EB0607AAEB0704A7F101074FEA1515EF
:100270004FEA3414A4F10104AC4201D300F032F887
:1002800013F0010F18BFFB1A43F0010300F001F84F
:10029000DBE71847F83C0000183D0000103A24BF87
:1002A00078C878C1FAD8520724BF30C830C144BFDB
:1002B00004680C60704700007047000000230024B1
:1002C00000250026103A28BF78C1FBD8520728BF66
:1002D00030C148BF0B6070471FB503F0E1FD1FBD83
:1002E00010B510BD00F05AF81146FFF7F5FF03F006
:1002F000CFFB00F078F803B4FFF7F2FF03BC00F087
:100300007FF800000A4880470A480047FEE7FEE7FA
:10031000FEE7FEE7FEE7FEE7FEE7FEE7FEE7FEE7B5
:10032000FEE7000004480549054A064B70470000F7
:10033000413A00083902000810030020100900208B
:1003400010050020100500204FF0000200B51346F4
:1003500094469646203922BFA0E80C50A0E80C50E5
:10036000B1F12001BFF4F7AF090728BFA0E80C5096
:1003700048BF0CC05DF804EB890028BF40F8042B8F
:1003800008BF704748BF20F8022B11F0804F18BFFC
:1003900000F8012B7047704770477047754600F0B2
:1003A0002BF8AE4605006946534620F00700854607
:1003B00018B020B5FFF7B6FFBDE820404FF00006AB
:1003C0004FF000074FF000084FF0000BAC46ACE8D0
:1003D000C009ACE8C009ACE8C009ACE8C00921F02C
:1003E00007018D46704710B50446AFF300802046E4
:1003F000BDE81040FFF77FBF0048704710000020A5
:1004000001491820ABBEFEE726000200704700003D
:10041000FEE7000010B541F20004C4F202242046B9
:100420004FF48061012200F0C3F920464FF40061CF
:10043000012200F0BDF920464FF40071012200F0C6
:10044000B7F9A4F500604021012200F0B1F90020C5
:1004500010BD000080B582B08DF8070040F2782012
:10046000C2F200000DF1070101224FF4FA7301F00E
:100470007BFF002818BF00F029F802B080BD000003
:100480002DE9F041002908BFBDE8F08140F278264F
:100490000C4605464FF6FF78C2F200064FF6FF778E
:1004A000444538BF2746BAB2304629464FF0FF339D
:1004B00001F05AFF002818BF00F008F8E41B3D4483
:1004C000ECD1BDE8F08100007047000086B040F636
:1004D0008C4072B6C4F20260016840F6000441F03C
:1004E000040101600068C4F2022400F004000190DD
:1004F0000198402001900120002502904CF2C06636
:1005000001A9204605950395C0F22D06049500F03B
:100510003BF800BF2046402100F042F900950098CA
:10052000B042F7D200BF0098013000900098B0426E
:10053000F0D200BF0098013000900098B042E9D29C
:1005400000BF0098013000900098B042E2D200BF96
:100550000098013000900098B042E3D3DAE7000041
:10056000B0B5044600F02AF9054640F20000C2F298
:1005700000000078611C18BF044400BF00F01EF9A1
:10058000401BA042FAD3B0BD2DE9F04F81B00D68F9
:10059000002D00F00181814647F67F70C0F22F00E8
:1005A00000EA992042F2000E0026009000234FF04E
:1005B000010AC4F2026EC4F20266484609E000BFB6
:1005C0000026C4F202660D68013335FA03F200F02A
:1005D000E3800AFA03F415EA040BF4D0B14527D0FE
:1005E000D1F8048048F01002122A57D16FF00302AC
:1005F00002EA53021C2707EA83074A440F26156ABA
:1006000006FA07F40E69A54306F00F0606FA07F787
:100610002F43176202685F000326D1F80480BE40B2
:10062000B24308F0030606FA07F73A4340E000BF7A
:10063000306843F6CC624D68C0F60002A04302EB7E
:10064000C30405F001059D40D4F804C0054352F8E9
:1006500033006FF0030202EA5C041C22356004449C
:1006600002EA8C05276A0F22AA400B2627EA02021B
:1006700006FA05F52A43226202684FEA4C04032574
:10068000A540AA43022505FA04F422430260D1F8EA
:100690000480B8F1120F10D935E000BF02685F0086
:1006A0000326BE40B24308F0030606FA07F73A43B2
:1006B0009C460260B8F1120F25D80AFA08F212F02F
:1006C000061F19D082684FEA4C040325CE68A54066
:1006D000AA4306FA04F42243826042680AFA0CF440
:1006E000A2434FEA181404FA0CF42243B8F1030FA2
:1006F000426004D007E000BFB8F1030F03D18A685D
:10070000012A3FF45DAFC2684FEA4C0703268D68AB
:10071000BE40B24305FA07F73A435FEAC807C26032
:100720007FF54EAF23F003021827724407EAC30790
:10073000166E0F25BD40AE43009D05FA07F73743FF
:100740001766DEF800204F6842EA0B06FD0258BF2C
:1007500022EA0B06CEF80060DEF80420BD0242EA71
:100760000B0658BF22EA0B06CEF80460DEF88420A0
:10077000BD0342EA0B0658BF22EA0B06CEF884609E
:10078000DEF88020FF0342EA0B0658BF22EA0B0680
:10079000CEF8806014E700BF01B0BDE8F08F000024
:1007A000426902EA0103914341EA034181617047D2
:1007B0001823002A08BF2823C150704740F2083090
:1007C000C2F200000068704740F20041C4F2030129
:1007D000086840F0010200200A60704740F2000003
:1007E00040F20831C2F20000C2F2000100780A684B
:1007F000104408607047000080B542F20000C4F267
:100800000200016841F480710160032000F0B4F837
:1008100000F000FE40F62041C4F20261096843F690
:10082000BA6201F00F01C0F60002515CC84040F20C
:100830000801C2F200010860042001F079FF0F20D6
:1008400000F008F800281CBF012080BD00F058F817
:10085000002080BD70B540F20006C2F2000631787B
:10086000E1B304464EF21000CEF2000000684007EB
:1008700010D401F0B7FF02281CD0012822D078BB89
:1008800040F20800C2F20000006831784FF4FA52DA
:1008900007E000BF40F20800C2F2000000684FF419
:1008A0007A72B2FBF1F1B0FBF1F001F089FFA8B967
:1008B0001BE000BF30784FF47A71B1FBF0F04FF4D9
:1008C000004106E030784FF47A71B1FBF0F04FF45C
:1008D000FA41B1FBF0F001F073FF30B1012070BDBF
:1008E000002001F06DFF0028F8D14FF0FF302146C5
:1008F0000022002500F014F82846746070BD000046
:1009000081B040F69440C4F20260016841F00401F5
:100910000160006800F004000090009801B070478A
:1009200010B54EF60C5CCEF2000CDCF80030C3F3D0
:10093000022E8EF00704042C28BF0424BEF103030A
:100940004FF0FF3E38BF00230EFA04F4A143994054
:100950000EFA03F39A4300F00F03043B1143634480
:1009600009010C3300F16042B0F1FF3FC8BF02F54E
:100970006443197010BD00004EF60C51CEF2000118
:100980000A684FF6FF031A4060F30A2242F08060C3
:1009900040F0FD700860704780B540F60C0CC4F262
:1009A000026CDCF8301001F4403181420CD1B0F11E
:1009B000011FC0F07F80DCF8000040F48020CCF8FC
:1009C0000000002080BD00BFDCF80010B0F5803FC3
:1009D00021F4E02141EA000140F2080088BF41F41F
:1009E0008021CCF80010C2F20000006841F2597179
:1009F000CDF2B711A0FB01014FEA913E734600BF53
:100A0000DCF80010B3F1FF3218BF0122581C22D0CD
:100A100011F400401FD1DCF80010002B1A4618BF5B
:100A2000012218D011F4004015D1DCF800105A1E34
:100A300018BF0122012B0ED011F400400BD1DCF8BD
:100A400000109A1E18BF0122022B04D011F400409E
:100A5000A3F10403D4D0A2B3DCF830101EF10102DC
:100A600024D011F4004021D1DCF83010BEF1000F89
:100A70001DD011F400401AD1DCF83010BEF1010F86
:100A80001AD011F4004017D1DCF83010BEF1020F7B
:100A9000AEF1040203D011F400409646DCD002F11E
:100AA000020EBEF1000F05D10BE000BF9646BEF16D
:100AB000000F06D0002080BDAEF1010EBEF1000F88
:100AC000F8D1032080BD000040F63C00C4F2026073
:100AD000006800F4403070472DE9F04F81B00446C3
:100AE000006840F6E04BC107C4F2026B20D18107D9
:100AF00028D4410730D4010738D4C10640D4810638
:100B000048D4410650D4010658D4C10560D44102EE
:100B100068D4810570D4410579D4010500F1828043
:100B200040F628488004C4F2026800F18A80B4E0EC
:100B3000DBF80010226D21F003011143CBF8001007
:100B40008107D6D5DBF80010626D21F00C0111434E
:100B5000CBF800104107CED5DBF80010A26D21F0D4
:100B600030011143CBF800100107C6D5DBF80010A7
:100B7000E26D21F0C0011143CBF80010C106BED5D3
:100B8000DBF80010226E21F440711143CBF8001005
:100B90008106B6D5DBF80810626E21F0070111431B
:100BA000CBF808104106AED5DBF80010A26E21F498
:100BB00040611143CBF800100106A6D5DBF8001008
:100BC000E26E21F440511143CBF80010C1059ED5CF
:100BD000DBF80810226F21F0C0011143CBF8081098
:100BE000410296D5DBF80010626F21F440411143B9
:100BF000CBF8001081058ED5DBF80810A26F21F428
:100C000040611143CBF8081041057FF586AFDBF852
:100C10000010E26F21F440211143CBF800100105D0
:100C20007FF57EAFDBF80810D4F8802021F4407106
:100C30001143CBF8081040F628488004C4F202683B
:100C40002BD5D4F890004FEA701104290CD8DFE8B6
:100C500001F0030D171D1D0004F1080002F052FD04
:100C60000646D8B908E000BF012617E004F12C00C1
:100C700002F0C4FD064688B9D4F8900006E000BF33
:100C8000D8F8001041F48031C8F80010DBF80410E7
:100C900021F0E0010843CBF804000026607840060C
:100CA00002D4374638E000BFD4F894004FEA302031
:100CB00004280BD83746DFE800F0030F1B1414009C
:100CC00004F1080002F01EFD0AE000BF0127012523
:100CD0006078000624D449E004F12C0002F08EFD77
:100CE00007463D4677B16078000619D43EE000BF64
:100CF000D8F80000374640F48030C8F80000002FD4
:100D00003D46F0D1DBF80400D4F8941020F4E06004
:100D100008430027CBF8040035466078000625D547
:100D2000D4F8A4004FEA3030052807D802280BD0A9
:100D30003E468FB1A078C0071CD139E001270126BB
:100D4000A078C00716D133E004F1080002F0DAFC05
:100D50000746002F3E46EDD1DBF80800D4F8A4107A
:100D600020F4E04008430027CBF808002E46A07886
:100D7000C0071DD0D4F88800042800F29B81DFE86A
:100D800010F00B0005009D010B000B00D8F80000CF
:100D900040F48030C8F800003D4657B9DBF8040045
:100DA000D4F8881020F0070008430027CBF804008F
:100DB0003546A07880071FD5D4F88C004FEA304024
:100DC000042800F28581DFE810F00B0005008701A0
:100DD0000B000B00D8F8000040F48030C8F8000089
:100DE000B94657B9DBF80800D4F88C1020F4E0209D
:100DF00008430027CBF80800A946A078400701D493
:100E00004D465DE05BF84C0C10F0040A0BD15BF82A
:100E10004C0C40F004004BF84C0C5BF84C0C00F010
:100E20000400009000984FF60045CFF6FF7558F883
:100E3000050040F0010048F80500FFF7BFFC06463A
:100E400058F80500C00707D1FFF7B8FC801B02283F
:100E5000F6D9032703252AE03D4647BBDBF81000FF
:100E600010F4407018D0D4F8BC10884211D0DBF8D0
:100E70001000DBF8101020F4407041F48031CBF802
:100E80001010DBF8101021F48031CBF81010CBF8E3
:100E90001000C00740F02A81DBF81000D4F8BC1025
:100EA00020F44070084300274D46CBF81000BAF1FB
:100EB000000F05D15BF84C0C20F004004BF84C0CF3
:100EC000A078C0061BD5D4F89C004FEAB060032878
:100ED00000F2DA80DFE800F00702DC0704F1080026
:100EE00002F010FC0746394657B9DBF80000D4F889
:100EF0009C1020F0406008430027CBF800002946F2
:100F0000206802031ED5D4F8982032B1B2F5005FF4
:100F100018BFB2F5805F40F0C7803E4657B18102EE
:100F200013D4010225D4C1012ED4810137D440014C
:100F300040D465E0DBF80430002723F440531A4323
:100F4000CBF804200E468102EBD5D4F8A010B1F501
:100F5000804F05D1D8F8002042F48032C8F8002034
:100F6000DBF8042022F480421143CBF80410010284
:100F7000D9D5DBF80010D4F8B02021F4401111438A
:100F8000CBF80010C101D0D5DBF80010D4F8B420A4
:100F900021F440311143CBF800108101C7D5DBF8B3
:100FA0000810D4F8B82021F018011143CBF808102C
:100FB000400125D5D4F8AC00B0F5401F0ED0B0F5F7
:100FC000001F05D1D8F8000040F40030C8F8000038
:100FD0003D465FB1E078000716D43DE004F108001B
:100FE00002F090FB0746002F3D46F3D1DBF80400EA
:100FF000D4F8AC1020F4401008430027CBF80400CC
:101000003546E078000727D5D4F8840058B1B0F110
:10101000007F11D0B0F1807F30D1D8F8000040F4CB
:101020000030C8F8000077B1E078C00618D4384620
:1010300001B0BDE8F08F00BF04F1080002F062FBD0
:101040000746002FF0D1DBF80000D4F8841020F020
:1010500040700843CBF800002F46E078C006E6D584
:10106000DBF80800D4F8A81020F400400843CBF8BF
:101070000800384601B0BDE8F08F00BF0127E078D6
:10108000C006D4D5ECE700BF0127012138E700BF37
:10109000D8F8000040F40030C8F80000002F3946AE
:1010A0007FF42EAF21E700BF0127012681027FF5E3
:1010B00038AF4AE7012701257BE600BF04F12C0089
:1010C00002F09CFB0746002F3D467FF472AE65E6BA
:1010D00001274FF0010990E604F12C0002F08EFB8D
:1010E0000746002FB9467FF488AE7BE6FFF766FB24
:1010F00006460327032500BFDBF8100080073FF5F5
:10110000CBAEFFF75BFB801B41F288318842F3D9FD
:10111000CDE600002DE9F04F81B0002800F01C81E1
:1011200042F20008C4F202080446D8F800000D4656
:1011300000F00F0088420DD2D8F8000020F00F0018
:101140002843C8F80000D8F8000000F00F00A842BB
:1011500040F00281206840F62049C106C4F20269CD
:101160000DD56169D9F8042002F07002914206D9C8
:10117000D9F8042022F070021143C9F804100107C5
:101180000FD52169D9F80020702303EA1212914289
:1011900007D9D9F8002022F4E06242EA0111C9F827
:1011A000001041070DD5E168D9F8002002F0700267
:1011B000914206D9D9F8002022F070021143C9F8F3
:1011C000001081070DD5A168D9F8002002F00F02A8
:1011D000914206D9D9F8002022F00F021143C9F834
:1011E0000010C00774D1206881070DD5A168D9F817
:1011F000002002F00F02914206D2D9F8002022F01E
:101200000F021143C9F80010D8F8001001F00F01C7
:10121000A9420DD9D8F8001021F00F012943C8F8D0
:101220000010D8F8001001F00F01A94240F094809E
:1012300041070DD5E168D9F8002002F07002914213
:1012400006D2D9F8002022F070021143C9F800102C
:1012500001070FD52169D9F80020702303EA121283
:10126000914207D2D9F8002022F4E06242EA01114B
:10127000C9F80010C0060DD56069D9F8041001F056
:101280007001884206D2D9F8041021F07001084399
:10129000C9F8040000F0BEF8D9F8001043F6BA62AD
:1012A00001F00F01C0F60002525C40F20401C2F2EC
:1012B0000001096840F2080320FA02F2C2F20003BA
:1012C00008461A6001B0BDE8F04FFFF7C3BA00BF8F
:1012D000606840F61C47C4F2026768B3022831D048
:1012E000032835D1D9F8740010F0040A0BD1D9F8CD
:1012F000740040F00400C9F87400D9F8740000F0DC
:10130000040000900098FFF759FA4FF6F03BCFF633
:10131000FF7B57F80B10490322D4BAF1000F05D117
:10132000D9F8740020F00400C9F8740057F81C0CB8
:10133000800111D5606822E057F81C0C40070BD5DE
:1013400000201CE057F81C0C800317D4012042E059
:1013500057F81C1C490512D4012001B0BDE8F08FDC
:10136000064600BF57F80B004004D6D4FFF726FA14
:10137000801B02284FF00300F4D92CE002203968CA
:1013800021F0030108433860FFF718FA6168064648
:10139000032941F2883A28D0022934D071B900BF1C
:1013A000386810F00C0F3FF41EAFFFF707FA801BF0
:1013B00050454FF00300F3D90DE000BF386800F04E
:1013C0000C0004283FF40FAFFFF7F8F9801B5045DD
:1013D0004FF00300F2D901B0BDE8F08FFFF7EEF94E
:1013E000801B50454FF00300F5D8386800F00C0022
:1013F0000C28F3D1F7E600BFFFF7E0F9801B50455A
:101400004FF00300E7D8386800F00C000828F3D14B
:10141000E9E6000080B540F6284CC4F2026C5CF8A6
:101420000C0C10F00C02DCF8000013D00C2A04BFE6
:1014300000F0030001280DD05CF80C0C9FED3E0A73
:1014400000F00C00042821D142F20040C0F2F40068
:1014500023E000BF5CF8200C000205D4DCF8CC00CF
:10146000C0F3033003E000BF5CF8200C000F43F62C
:101470004C73C0F6000353F82000002A00EE100A57
:1014800018BF0020B8EE400A07E000BF0020082A7D
:1014900004BF41F20020C0F27A000C2A18BF80BDC0
:1014A000DCF800E0DCF80030DCF80020DCF810109C
:1014B000C2F30010C1F3CC010EF0030201FB00F0F7
:1014C000C3F3032101EE100A022AB8EE411A01F11A
:1014D000010005D0032A08BF9FED190A02E000BFF2
:1014E0009FED160A02EE100ADCF80C00B8EE422A54
:1014F0006FF35F2080EE020A02EE100A9FED113AB0
:10150000B8EE422A21EE031ADCF80C0031EE021A82
:10151000B7EE002AC0F3066031EE021A013020EE69
:10152000010A01EE100AB8EE411A80EE010ABCEE83
:10153000C00A10EE100A80BD000000000024744BA9
:101540000024F44A000000392DE9F04381B000285E
:1015500000F0468440F694490446C4F2026959F802
:10156000780C59F86C1C227800F00C07D00601F0BA
:10157000030823D42078C0077AD0082F74D00C2F0A
:1015800008BFB8F1030F6FD0606840F60046B0F5B1
:10159000803FC4F2026600F0EB82B0F5A81F00F0B5
:1015A000DF82B0F5A02F40F0F782306840F4802051
:1015B0003060306820F48010D9E200BF17B30C2FE0
:1015C00008BFB8F1010F1DD040F60046C4F2026614
:1015D000E1693068002900F0BB8140F00100306013
:1015E000FFF7ECF8054600BF3068400700F1C28104
:1015F000FFF7E4F8401B02284FF00300F4D901B0D4
:10160000BDE8F083E069002800F0EA8340F6004579
:10161000C4F20265666AA86800025ABFD9F8600081
:101620000004A86800F07040864240F26581002FF7
:1016300040F03483D9F80000400700F11383D9F853
:10164000000040F00400C9F80000D9F8000000F0E4
:10165000040000900098FFF737FAD9F8001021F045
:101660000401C9F80010FFE26068002800F0B883A8
:10167000207880072FD5042F20D00C2F08BFB8F179
:10168000020F1BD040F60046C4F20266E1683068E3
:10169000002900F0298240F480703060FFF78EF856
:1016A000054600BF306840050CD4FFF787F8401BA3
:1016B00002284FF00300F5D9A1E700BFE068002839
:1016C00000F08E8359F8840C216920F4F81040EA68
:1016D000014049F8840C207840F600470007C4F226
:1016E000026775D42078400700F1CA802078800610
:1016F00000F116812078000600F150812078400624
:1017000000F1B881A56B002D00F0DE8459F8780C4B
:1017100000F00C000C2840F06F8259F86C1C59F84E
:10172000600C012D00F05C83E26B01F00303934237
:1017300040F05683226CC1F30323013A934240F0F8
:101740004F83626C01F47041914240F04983A26C76
:1017500001466FF35F21013A914240F04183E16C11
:10176000C0F3462201398A4240F03A83216DC0F32A
:10177000064201398A4240F03383616DC0F306604E
:101780000139884240F02C8359F85C0CE16DC0F3BC
:10179000CC00884200F0988459F86C0C20F01000BE
:1017A00049F86C0CFFF70AF80546FFF707F8A8425E
:1017B000FBD0E06DC00049F85C0C59F86C0C40F0AF
:1017C000100049F86C0C002001B0BDE8F08300BFA8
:1017D000D9F8000010F004080BD1D9F8000040F04F
:1017E0000400C9F80000D9F8000000F004000090DF
:1017F00000984FF62846CFF6FF76B859C00713D1A8
:10180000B85940F00100B851FEF7D8FF054600BFB7
:10181000B859C00708D1FEF7D1FF401B0228F7D9FD
:10182000032001B0BDE8F0836069D9F85C1000289E
:1018300000F0CC80A06901F08052904200F04A8311
:1018400001F04062B2F1006F00F0CA82490140F13C
:101850003A83D9F85C0020F0A050C9F85C00FEF78C
:10186000ADFF0546D9F85C00000140F12B83FEF77F
:10187000A5FF401B05284FF00300F3D9BFE600BFCA
:10188000D9F8000010F004080BD1D9F8000040F09E
:101890000400C9F80000D9F8000000F0040000902E
:1018A00000984FF62846CFF6FF76B859C00713D1F7
:1018B000B85940F00100B851FEF780FF054600BF5F
:1018C000B859C00708D1FEF779FF401B02284FF036
:1018D0000300F5D993E600BFA568E80740F08C80C7
:1018E000D9F85C0020F00100C9F85C00D9F85C0070
:1018F00020F004008CE000BFA868B6F1404F40F42F
:101900000000A860A86820F0704040EA0600A860C7
:10191000C0F0CA80E868216A20F01F0008431CE27A
:10192000E16A3868002900F0098140F4805038608D
:10193000FEF744FF054600BF386880043FF5DAAE85
:10194000FEF73CFF401B02284FF00300F4D956E697
:1019500020F001003060FEF731FF05463068400797
:101960007FF508AEFEF72AFF401B02284FF0030068
:10197000F4D944E6B06840F40000B060B168606A31
:1019800021F070410143B0F1404FB160C0F09C8044
:10199000F068216A20F01F0008435EE2216B38687E
:1019A000002900F0178140F480403860FEF706FF00
:1019B000054600BF386800043FF5A0AEFEF7FEFE06
:1019C000401B02284FF00300F4D918E621F0A05084
:1019D000C9F85C00FEF7F2FE054600BFD9F85C00CE
:1019E000000140F18F82FEF7E9FE401B05284FF011
:1019F0000300F3D903E600BFD9F85C00690705D5F9
:101A000040F00400C9F85C00D9F85C0040F0010027
:101A1000C9F85C00FEF7D2FE002D054641F288367B
:101A200014D000BFD9F85C0080076FD4FEF7C6FE63
:101A3000401BB0424FF00300F4D9E0E5FEF7BEFED4
:101A4000401BB0424FF003003FF6D9ADD9F85C001F
:101A50008007F3D4D9F85C00000600F10182B8F1E8
:101A6000000F7FF443AED9F8000020F00400C9F85D
:101A700000003BE6606B002800F0E080B86840F4AE
:101A80000000B860B86820F07061D4E90902B0F1D4
:101A9000404F41EA0201B960C0F04A81F868216A0A
:101AA00020F01F000843DEE2B6F1FF3F40F31A8149
:101AB000E868B6F1804FC0F04B81216A20F4F8400D
:101AC00040EA812049E100BFB0F1FF3F40F394813B
:101AD000F168B0F1804FC0F0BB81206A21F4F84179
:101AE00041EA8020B9E100BF20F480703060FEF749
:101AF00065FE0546306840057FF5EDADFEF75EFEFC
:101B0000401B02284FF00300F4D978E5A168D9F80A
:101B10005C00090600F1F88020F0800041F2883670
:101B2000C9F85C00D9F85C00000598D5FEF746FEC0
:101B3000401BB0424FF00300F4D960E520F4805020
:101B40003860FEF73BFE0546386880047FF5D2AD6D
:101B5000FEF734FE401B02284FF00300F4D94EE597
:101B6000306840F480203060306840F4801030608D
:101B7000306840F480303060FEF720FE054600BF3C
:101B8000306880033FF574ADFEF718FE401B6428F3
:101B90004FF00300F4D932E53168002821F4803198
:101BA0003160316821F480213160316821F4801185
:101BB0003160E1D1FEF702FE0546306880037FF513
:101BC00057ADFEF7FBFD401B64284FF00300F4D92E
:101BD00015E500BF20F480403860FEF7EFFD0546B4
:101BE000386800047FF58AADFEF7E8FD401B022847
:101BF0004FF00300F4D902E5386820F080703860B7
:101C0000FEF7DCFD022D05460CD13868800140F15D
:101C10008581FEF7D3FD401B02284FF00300F4D965
:101C2000EDE400BF3868800140F10882FEF7C6FD90
:101C3000401B02284FF00300F4D9E0E4386820F09C
:101C400010003860FEF7BAFD0546386880067FF55B
:101C500059ADFEF7B3FD401B02284FF00300F4D945
:101C6000CDE400BFFEF730FF20F48031B1F5003F36
:101C700040D10021B6F1805F38BF012142F200005F
:101C8000C4F20200026822F00F020A4402600068F7
:101C900000F00F00884240F0A380666AA868B6F1A1
:101CA000404F40F40000A860A86820F0704040EA6F
:101CB0000600A86006D3E868216A20F01F000843E8
:101CC000A7E000BFB6F1FF3F40F38E80E868B6F1B1
:101CD000804FC0F09980216A20F4F84040EA8120CA
:101CE00097E000BFE868216A20F4787040EA41106C
:101CF00033E000BF0021B1EB167F40F0C780B0F5A4
:101D0000803F6DD10321B9E740F0800041F2883671
:101D1000C9F85C00D9F85C0000053FF5A0AEFEF7FD
:101D20004DFD401BB0424FF00300F3D967E400BF04
:101D3000B0F1FF3F40F38A81F968B0F1804FC0F005
:101D40008D81206A21F4F84141EA80208BE100BFB7
:101D5000216A20F4782040EAC130002FE86059D190
:101D6000D9F80000400715D4D9F8000040F004006D
:101D7000C9F80000D9F8000000F0040000900098B5
:101D8000FEF7A2FED9F8001021F00401C9F80010F6
:101D900002E000BFFEF798FE20F48031B1F5003F6D
:101DA00014D10021B6F1805F38BF012142F200005A
:101DB000C4F20200026822F00F020A4402600068C6
:101DC00000F00F0088420BD124E000BF0021B1EBEE
:101DD000167F69D1B0F5803F02D10321E6E700BF4D
:101DE000012001B0BDE8F083E868216A20F4787032
:101DF00040EA41100DE000BFF068216A20F47870DD
:101E000040EA411029E000BF216A20F4782040EA2E
:101E1000C130E860FFF7FEFA59F8741C43F6BA6265
:101E200001F00F01C0F60002515C40F2080220FAF6
:101E300001F140F20400C2F200000068C2F20002A8
:101E40001160FEF707FD00287FF4D9ABFFF792BBC6
:101E5000206A21F4782141EAC030F060FFF78ABBA4
:101E6000D9F85C0041F2883620F08000C9F85C00A7
:101E7000D9F85C0000057FF5F2ADFEF79FFC401B32
:101E8000B0424FF00300F3D9FFF7B9BBB6F1005FE2
:101E900040F20081B0FA80F000214009B6F1405FC5
:101EA00098BF01210140E9E6B6F1005F40F2FC80F5
:101EB000B0FA80F000214009B6F1405F98BF0121DF
:101EC000014073E7A069D9F85C1021F08051084304
:101ED000C9F85C00D9F85C0040F08060C9F85C008B
:101EE000FEF76CFC054600BFD9F85C00000109D480
:101EF000FEF764FC401B05284FF00300F4D9FFF700
:101F00007EBB00BFB8F1000F7FF4ECABD9F8000046
:101F100020F00400C9F80000FFF7E4BBD9F8000086
:101F200010F0040C0BD1D9F8001041F00401C9F8ED
:101F30000010D9F8001001F00401009100994FF64B
:101F40000C48CFF6FF7857F808E057F808304FF6FE
:101F5000037623F4802347F8083059F86C3CD4E921
:101F60001102B343D4E90F656FF0FF013343184307
:101F700001EB05214FF47E43084349F86C0C59F8F6
:101F8000600C0021C8F280010840511EE26C4FF441
:101F9000FE0503EB4222236D6FF35F2105EB034344
:101FA000656D92B24FF0FE4606EB0565084403F4FA
:101FB000FE03104405F0FE451844284449F8600C1F
:101FC00059F86C0C20F0100049F86C0CE06DC00062
:101FD00049F85C0C59F86C0C40F0100049F86C0C96
:101FE00059F86C0CA16D20F00C0008435FEA4E31EB
:101FF00049F86C0C05D557F8080040F4802047F8E4
:102000000800BCF1000F05D1D9F8000020F0040051
:10201000C9F80000386840F080703860FEF7CEFBE9
:1020200004463868800149D4FEF7C8FB001B02282B
:102030004FF00300F5D9FFF7E2BA00BF59F86C0C76
:102040004FF6FC71CFF6F87108403BE0F868216A62
:1020500020F4787040EA411005E000BF206A21F4C6
:10206000782141EAC030F860386840F010003860EC
:10207000FEF7A4FB054600BF386880063FF542AB7B
:10208000FEF79CFB401B02284FF00300F4D9FFF73A
:10209000B6BA00BF0221B0F5803F08BF0121B6F1FA
:1020A000805F18BF0121E9E50221B0F5803F08BF3C
:1020B0000121B6F1805F18BF012177E659F86C0C59
:1020C00040F4802049F86C0C002001B0BDE8F0839A
:1020D00090F88920012A1CBF0120704790F88820C1
:1020E000012A4FF0020215D080F889200268136897
:1020F00023F001031360D1E900C3896803F470235E
:1021000043EA0C031943D1610121002280F88910B0
:1021100080F8882010467047F0B581B0002861D063
:102120000446006842F2000240F08053C5F20062AB
:1021300000219342A16203D1E1680F2952D800E047
:10214000E168E36B012505EB53130831C90803FB74
:1021500001F143F2FF73C5F20003984210DC43F62D
:102160000002C4F2000290423AD043F20002C4F2EC
:102170000102904234D042F20002C4F200620BE04D
:1021800043F60003C5F20003984229D043F200034E
:10219000C5F20103984223D0904201D1082921D8E9
:1021A00094F8891031B9002084F88800204600F0A6
:1021B00071F82068022184F88910016821F001017A
:1021C00001608368A7696268B7F1806F03F4F81C47
:1021D00014D15AB1B2F5800F10D1A36BA3B909E0A5
:1021E0001029DDD9012001B0F0BD00BFA36BB3F110
:1021F000805F05D1036843F480530360530203D426
:10220000E3684FF0010E0DE0E368072B08D3D0F828
:1022100000E0266D2EF4807535434FF0000E04E08B
:102220004FF0000E056825F480750560E569A66A23
:1022300045EA0C05E16B2E4331431943A568266935
:1022400063698160616B3A43676A1143A26B3943EA
:1022500011433143226A1943E36C11431943A26CC1
:102260002943A36D1143E26D1943236E11431943B2
:10227000BEF1000FC16005D1C168626D21F000415F
:102280001143C16000200121C4F88C0084F889103A
:1022900001B0F0BD2DE9F043B7B0044602A8002517
:1022A0000830B8213695CDE93455CDE93255FEF7E1
:1022B0004BF8206843F20001C4F20101884203D0C8
:1022C00037B0BDE8F08300BF4FF4000002904FF438
:1022D00080102E9002A80395FEF7FEFB002818BF81
:1022E000FEF7F4F840F68C40C4F2026081690024E5
:1022F00041F4805181618169C4F2022401F480516A
:1023000001910199016832AD41F00101016001685C
:10231000022601F001010191019901684FF00008C6
:1023200041F01001016000684FF0030900F0100057
:1023300001900198052720462946CDE93266CDF85F
:10234000D080CDF8D4903697FEF71EF94FF40040B8
:1023500032A981E8410304F5805029463697FEF7FB
:1023600013F937B0BDE8F0832DE9F04381B0D0F820
:1023700000901D46174604460E46FEF71FFA94F8D5
:10238000891001290ED18046002E4FF0010018BFA0
:10239000002F03D101B0BDE8F08300BF94F888009E
:1023A000012803D1022001B0BDE8F0830121032000
:1023B000002284F8881084F88900C4F88C206666AE
:1023C000A4F86870A4F86A70E266A4F87020A4F813
:1023D0007220A068A267B0F5C02F2068E26705D11F
:1023E0000168034641F4006205E000BF034653F86C
:1023F0000C2F61F352421A6041684FF6FF7291430D
:1024000039444160016841F001010160C1698902FC
:1024100007D46168B1F5800F03D1016841F4007100
:102420000160E168102913D343F2FF71C5F2000186
:10243000884200F3958043F60001C4F2000188420F
:1024400000F09A8043F20001C4F2010192E000BF63
:10245000072900F2CF80B4F86A10002900F0288123
:10246000691C44D04FF6FE718E1E4F1C41698907CE
:1024700006D4FEF7A3F9A0EB0800A8422BD343E152
:10248000B4F86A10042909D3E16B402906D9616EBA
:1024900051F8042B02623046616617E0B4F86A1006
:1024A00002290BD3E16B49B1606E30F8021BA9F829
:1024B000201060664FF6FE7008E000BF616E09787C
:1024C00080F82010606E013060663846B4F86A10FB
:1024D0000844A4F86A00B4F86A00002800F0E88014
:1024E000206841698907CBD4C3E700BF20684169F0
:1024F000890703D4FEF762F92CE000BFB4F86A1034
:1025000004290BD3E16B412908D3616E51F8042BE8
:1025100002626166B4F86A00043819E0B4F86A101F
:1025200002290BD3E16B49B1606E30F8021BA9F8A8
:1025300020106066B4F86A00023809E0616E09781C
:1025400080F82010606E01306066B4F86A000138CF
:10255000A4F86A00B4F86A000028C7D1A8E000BF58
:1025600043F20001C5F20101884205D043F60001A3
:10257000C5F2000188423DD1B4F86A10002900F08C
:102580009780691C1FD000BF4169890706D4FEF7F8
:1025900015F9A0EB0800A8420AD3B5E0616E51F826
:1025A000042B02626166B4F86A000138A4F86A007C
:1025B000B4F86A00002800F07B8020684169890730
:1025C000E5D5EBE720684169890703D4FEF7F6F803
:1025D0000AE000BF616E51F8042B02626166B4F834
:1025E0006A000138A4F86A00B4F86A000028E9D14A
:1025F0005EE000BFB4F86A10002959D0691C35D0DC
:102600004FF6FE714E1C4169890707D4FEF7D6F8D4
:10261000A0EB0800A8421BD376E000BFB4F86A1014
:10262000022909D3E16B39B1616E51F8042B0262C2
:102630004FF6FE70616606E0606E30F8021BA9F886
:10264000201060663046B4F86A100844A4F86A00A6
:10265000B4F86A0060B3206841698907DED4D5E721
:10266000FEF7ACF8B4F86A0000BB21E041698907C5
:10267000F6D5B4F86A1002290AD3E16B41B1616E54
:1026800051F8042B02626166B4F86A00023808E06F
:10269000606E30F8021BA9F820106066B4F86A007A
:1026A0000138A4F86A00B4F86A0008B12068DDE7D0
:1026B000681C13D020684069000713D4FEF77EF829
:1026C000A0EB0800A842F5D3D4F88C0040F020001D
:1026D000C4F88C0006E000BFFEF770F8206840697F
:1026E0000007F9D5204601F005F9012084F889009A
:1026F000002084F88800D4F88C00002818BF01203E
:1027000001B0BDE8F08300BF204601F0F3F8D4F833
:102710008C0040F48070C4F88C00012084F889009B
:10272000002084F88800032001B0BDE8F083000099
:10273000042888BF7047DFE800F003152738390008
:102740004EF21000CEF20000016821F00401016099
:1027500040F6E040C4F20260016821F440010160EB
:10276000704700BF4EF21000CEF200000168012257
:1027700021F00401016040F6E040C4F2026001680B
:1027800062F39751016070474EF21000CEF20000E4
:102790000168022221F00401016040F6E040C4F229
:1027A0000260016862F39751016070474EF21000B9
:1027B000CEF20000016841F00401016070470000A2
:1027C000411E0020B0EB116F1CBF012070474EF27C
:1027D0001002CEF2000251609060116841F00301D6
:1027E000116070474EF21000CEF200000068400702
:1027F00044BF0420704740F6E040C4F20260006825
:1028000000F44001A1F58000B0FA80F04009B1F574
:10281000000F08BF02207047FEE700002DE9F043DB
:1028200081B040F27007C2F2000714463A88824233
:102830000DD905467888884209D9A24238BF144686
:10284000984238BF0346AC4288BF8B4202D801B0E1
:10285000BDE8F083089F41F2000828462246C4F2F2
:102860000228A3EB010900F07DFD40464FF4006112
:102870000122FDF79DFF40464FF4806100220026B3
:10288000FDF796FF40F27601380AC2F2000100BF60
:102890008A1988552036B6F5007F57709070D7702A
:1028A000107157719071D771107257729072D77200
:1028B000107357739073D773107457749074D774E0
:1028C000107557759075D775107657769076D776C0
:1028D000107757779077D777DAD1601B09FB00F52F
:1028E00085B140F27604C2F2000400BF2E46B5F571
:1028F000807F28BF4FF4807671002046FDF7C0FD31
:10290000AD1BF3D140464FF48061012201B0BDE818
:10291000F043FDF74DBF000080B582B040F2700E6D
:10292000C2F2000EBEF800C084451DD9BEF802E018
:102930008E4519D9944598BFACF101021FFA82FC6B
:102940009E4598BFAEF1010384450DD31FFA83FC69
:102950008C4509D301320133DDF810C092B29BB22D
:10296000CDF800C0FFF75AFF02B080BD70B541F24C
:102970000004C4F20224054620464FF400710122EF
:10298000FDF716FF6420FDF7EBFD20464FF40071C4
:1029900000220026FDF70CFF6420FDF7E1FD204634
:1029A0004FF400710122FDF703FF6420FDF7D8FD0D
:1029B00040F27000C2F200004FF48C71F0220571F9
:1029C000002D08BFF02108BF4FF48C7241800280B7
:1029D00020464FF400610022FDF7EAFE20464FF446
:1029E00080610022FDF7E4FE1120FDF733FD204653
:1029F0004FF480610122FDF7DBFE7820FDF7B0FD8A
:102A000020464FF400610022FDF7D2FE20464FF42D
:102A100080610022FDF7CCFE3620FDF71BFD20462D
:102A20004FF480610122FDF7C3FE20464FF40061A0
:102A30000122FDF7BDFE20464FF480610022FDF724
:102A4000B7FE002D08BF70263046FDF703FD204677
:102A50004FF480610122FDF7ABFE20464FF4006188
:102A60000022FDF7A5FE20464FF480610022FDF70D
:102A70009FFE3A20FDF7EEFC20464FF480610122D4
:102A8000FDF796FE20464FF400610122FDF790FE0F
:102A900020464FF480610022FDF78AFE5520FDF7A5
:102AA000D9FC20464FF480610122FDF781FE2046CB
:102AB0004FF400610022FDF77BFE20464FF4806159
:102AC0000022FDF775FEB220FDF7C4FC20464FF44E
:102AD00080610122FDF76CFE20464FF40061012267
:102AE000FDF766FE20464FF480610022FDF760FE90
:102AF0000C20FDF7AFFC20464FF480610122FDF76A
:102B000057FE20464FF400610122FDF751FE20469A
:102B10004FF480610022FDF74BFE0C20FDF79AFC7C
:102B200020464FF480610122FDF742FE20464FF41B
:102B300000610122FDF73CFE20464FF48061002237
:102B4000FDF736FE0020FDF785FC20464FF480613E
:102B50000122FDF72DFE20464FF400610122FDF712
:102B600027FE20464FF480610022FDF721FE33202E
:102B7000FDF770FC20464FF480610122FDF718FE3E
:102B800020464FF400610122FDF712FE20464FF46B
:102B900080610022FDF70CFE3320FDF75BFC204630
:102BA0004FF480610122FDF703FE20464FF40061DF
:102BB0000022FDF7FDFD20464FF480610022FDF765
:102BC000F7FDB720FDF746FC20464FF48061012257
:102BD000FDF7EEFD20464FF400610122FDF7E8FD10
:102BE00020464FF480610022FDF7E2FD3520FDF71D
:102BF00031FC20464FF480610122FDF7D9FD2046CB
:102C00004FF400610022FDF7D3FD20464FF48061B0
:102C10000022FDF7CDFDBB20FDF71CFC20464FF444
:102C200080610122FDF7C4FD20464FF400610122BE
:102C3000FDF7BEFD20464FF480610022FDF7B8FD90
:102C40003220FDF707FC20464FF480610122FDF79A
:102C5000AFFD20464FF400610022FDF7A9FD20469C
:102C60004FF480610022FDF7A3FDC220FDF7F2FBC7
:102C700020464FF480610122FDF79AFD20464FF473
:102C800000610122FDF794FD20464FF4806100228F
:102C9000FDF78EFD0120FDF7DDFB20464FF480613E
:102CA0000122FDF785FD20464FF400610022FDF76B
:102CB0007FFD20464FF480610022FDF779FDC3209F
:102CC000FDF7C8FB20464FF480610122FDF770FD3F
:102CD00020464FF400610122FDF76AFD20464FF4C3
:102CE00080610022FDF764FD1520FDF7B3FB20464F
:102CF0004FF480610122FDF75BFD20464FF4006137
:102D00000022FDF755FD20464FF480610022FDF7BB
:102D10004FFDC420FDF79EFB20464FF48061012249
:102D2000FDF746FD20464FF400610122FDF740FD0E
:102D300020464FF480610022FDF73AFD2020FDF788
:102D400089FB20464FF480610122FDF731FD2046CA
:102D50004FF400610022FDF72BFD20464FF4806107
:102D60000022FDF725FDC620FDF774FB20464FF439
:102D700080610122FDF71CFD20464FF40061012215
:102D8000FDF716FD20464FF480610022FDF710FD8F
:102D90000F20FDF75FFB20464FF480610122FDF715
:102DA00007FD20464FF400610022FDF701FD20469B
:102DB0004FF480610022FDF7FBFCD020FDF74AFBB9
:102DC00020464FF480610122FDF7F2FC20464FF4CB
:102DD00000610122FDF7ECFC20464FF480610022E7
:102DE000FDF7E6FCA420FDF735FB20464FF480619B
:102DF0000122FDF7DDFC20464FF400610122FDF7C2
:102E0000D7FC20464FF480610022FDF7D1FCA120C1
:102E1000FDF720FB20464FF480610122FDF7C8FC3E
:102E200020464FF400610022FDF7C2FC20464FF41B
:102E300080610022FDF7BCFCE020FDF70BFB204683
:102E40004FF480610122FDF7B3FC20464FF400618E
:102E50000122FDF7ADFC20464FF480610022FDF712
:102E6000A7FCD020FDF7F6FA20464FF4806101223E
:102E7000FDF79EFC20464FF400610122FDF798FC0F
:102E800020464FF480610022FDF792FC0820FDF7F8
:102E9000E1FA20464FF480610122FDF789FC2046CB
:102EA0004FF400610122FDF783FC20464FF480615E
:102EB0000022FDF77DFC0E20FDF7CCFA20464FF4F2
:102EC00080610122FDF774FC20464FF4006101226D
:102ED000FDF76EFC20464FF480610022FDF768FC90
:102EE0000920FDF7B7FA20464FF480610122FDF773
:102EF0005FFC20464FF400610122FDF759FC20469B
:102F00004FF480610022FDF753FC0920FDF7A2FA7F
:102F100020464FF480610122FDF74AFC20464FF421
:102F200000610122FDF744FC20464FF4806100223D
:102F3000FDF73EFC0520FDF78DFA20464FF4806139
:102F40000122FDF735FC20464FF400610122FDF718
:102F50002FFC20464FF480610022FDF729FC312030
:102F6000FDF778FA20464FF480610122FDF720FC3E
:102F700020464FF400610122FDF71AFC20464FF471
:102F800080610022FDF714FC3320FDF763FA204630
:102F90004FF480610122FDF70BFC20464FF40061E5
:102FA0000122FDF705FC20464FF480610022FDF769
:102FB000FFFB4820FDF74EFA20464FF480610122C6
:102FC000FDF7F6FB20464FF400610122FDF7F0FB10
:102FD00020464FF480610022FDF7EAFB1720FDF741
:102FE00039FA20464FF480610122FDF7E1FB2046CB
:102FF0004FF400610122FDF7DBFB20464FF48061B6
:103000000022FDF7D5FB1420FDF724FA20464FF4EB
:1030100080610122FDF7CCFB20464FF400610122C4
:10302000FDF7C6FB20464FF480610022FDF7C0FB90
:103030001520FDF70FFA20464FF480610122FDF7BD
:10304000B7FB20464FF400610122FDF7B1FB20469B
:103050004FF480610022FDF7ABFB3120FDF7FAF958
:1030600020464FF480610122FDF7A2FB20464FF479
:1030700000610122FDF79CFB20464FF48061002295
:10308000FDF796FB3420FDF7E5F920464FF480610B
:103090000122FDF78DFB20464FF400610022FDF771
:1030A00087FB20464FF480610022FDF781FBE12081
:1030B000FDF7D0F920464FF480610122FDF778FB3F
:1030C00020464FF400610122FDF772FB20464FF4C9
:1030D00080610022FDF76CFBD020FDF7BBF9204694
:1030E0004FF480610122FDF763FB20464FF400613D
:1030F0000122FDF75DFB20464FF480610022FDF7C1
:1031000057FB0820FDF7A6F920464FF48061012205
:10311000FDF74EFB20464FF400610122FDF748FB0E
:1031200020464FF480610022FDF742FB0E20FDF7A0
:1031300091F920464FF480610122FDF739FB2046CA
:103140004FF400610122FDF733FB20464FF480610C
:103150000022FDF72DFB0920FDF77CF920464FF4F6
:1031600080610122FDF724FB20464FF4006101221B
:10317000FDF71EFB20464FF480610022FDF718FB8F
:103180000920FDF767F920464FF480610122FDF721
:103190000FFB20464FF400610122FDF709FB20469A
:1031A0004FF480610022FDF703FB1520FDF752F973
:1031B00020464FF480610122FDF7FAFA20464FF4D1
:1031C00000610122FDF7F4FA20464FF480610022ED
:1031D000FDF7EEFA3120FDF73DF920464FF480610E
:1031E0000122FDF7E5FA20464FF400610122FDF7C8
:1031F000DFFA20464FF480610022FDF7D9FA332030
:10320000FDF728F920464FF480610122FDF7D0FA3E
:1032100020464FF400610122FDF7CAFA20464FF420
:1032200080610022FDF7C4FA4820FDF713F920461B
:103230004FF480610122FDF7BBFA20464FF4006194
:103240000122FDF7B5FA20464FF480610022FDF718
:10325000AFFA1720FDF7FEF820464FF480610122F7
:10326000FDF7A6FA20464FF400610122FDF7A0FA0F
:1032700020464FF480610022FDF79AFA1420FDF7F2
:10328000E9F820464FF480610122FDF791FA2046CB
:103290004FF400610122FDF78BFA20464FF4806164
:1032A0000022FDF785FA1520FDF7D4F820464FF4EB
:1032B00080610122FDF77CFA20464FF40061012273
:1032C000FDF776FA20464FF480610022FDF770FA90
:1032D0003120FDF7BFF820464FF480610122FDF751
:1032E00067FA20464FF400610122FDF761FA20469B
:1032F0004FF480610022FDF75BFA3420FDF7AAF855
:1033000020464FF480610122FDF752FA20464FF427
:1033100000610022FDF74CFA20464FF48061002244
:10332000FDF746FA2120FDF795F820464FF480611D
:103330000122FDF73DFA20464FF400610022FDF71F
:1033400037FA20464FF480610022FDF731FA292038
:10335000FDF780F820464FF480610122BDE87040FF
:10336000FDF726BA2DE9F047894640F2700141F297
:103370000004C2F20001C4F20224174691F804A02E
:10338000054620464FF4006100229846FDF710FAEA
:1033900020464FF480610022FDF70AFA2A20FDF74B
:1033A00059F820464FF480610122FDF701FA2046CA
:1033B0004FF4006101222E0AFDF7FAF920464FF47E
:1033C00080610022FDF7F4F93046FDF743F820460E
:1033D0004FF480610122FDF7EBF920464FF40061C4
:1033E0000122FDF7E5F920464FF480610022FDF748
:1033F000DFF9E8B2FDF72EF820464FF48061012294
:10340000FDF7D6F920464FF4006101227D1EFDF73D
:10341000CFF920464FF480610022FDF7C9F9C5F3CA
:103420000720FDF717F820464FF480610122FDF7D1
:10343000BFF920464FF400610122FDF7B9F920469B
:103440004FF480610022FDF7B3F9E8B2FDF702F80E
:1034500020464FF480610122FDF7AAF920464FF47F
:1034600000610022FDF7A4F920464FF4806100229C
:10347000FDF79EF92B20FCF7EDFF20464FF480610D
:103480000122FDF795F9BAF1010F19D120464FF449
:103490000061012209F11409FDF78AF920464FF471
:1034A00080610022FDF784F9C9F30720FCF7D2FF01
:1034B00020464FF480610122FDF77AF9132518E0C8
:1034C00020464FF4006101224FEA1925FDF770F9FB
:1034D00020464FF480610022FDF76AF92846FCF788
:1034E000B9FF20464FF480610122FDF761F94FF0EA
:1034F000FF3520464FF400610122FDF759F92046BF
:103500004FF480610022FDF753F95FFA89F0FCF770
:10351000A1FF20464FF480610122FDF749F92046C2
:103520004FF4006101224544FDF742F920464FF473
:1035300080610022FDF73CF9C5F30720FCF78AFF04
:1035400020464FF480610122FDF732F920464FF406
:1035500000610122FDF72CF920464FF48061002222
:10356000FDF726F9E8B2FCF775FF20464FF48061BD
:103570000122FDF71DF920464FF400610022FDF7FE
:1035800017F920464FF480610022FDF711F92C2035
:10359000FCF760FF20464FF480610122BDE8F04750
:1035A000FDF706B92DE9F04387B04FF0000940F66A
:1035B0008C40CDF81890C4F20260016840F6000417
:1035C00041F0800101600168C4F2022401F0800131
:1035D00001910199016804F5006541F00101016064
:1035E0000168002201F001010191019901684FF485
:1035F000606641F010010160016801F01001019165
:103600000199016841F00401016000684FF46061B4
:1036100000F00400019001982846FDF7C9F8204603
:10362000402100224FF04008FDF7C2F80296022028
:1036300002AE0127059028463146CDE90379FCF713
:10364000A3FF20463146CDE90287CDE90499FCF776
:103650009BFF07B0BDE8F08380B5FDF7B5F8002803
:1036600008BF80BDBDE88040FCF730BFB0B584B076
:1036700040F2782043F200014FF4800EC2F20000C5
:10368000C4F2010100244FF4003207234FF0806C94
:103690004FF04055C0E9001E00F108010394CDE948
:1036A00001441CC1C0E9054CC0E90754C0E9094404
:1036B000C362C0E90D44C463C0E91244C0E91444C4
:1036C000C0E916440466FEF727FD002818BFFCF782
:1036D000FDFE4FF08050CDE9020440F27820C2F2A6
:1036E000000001A90194FEF7F3FC002818BFFCF7C5
:1036F000EDFE04B0B0BD0000FEE70000FEE70000F4
:103700007047000070B540F62C46C4F2026656F8C9
:103710002C1C044621F0806046F82C0CFDF74EF876
:10372000054600BF56F82C0C000107D5FDF746F8FA
:10373000401B022884BF032070BDF3E7306840F6C9
:103740000371884394E80E106FF0FF0505EB022229
:1037500008431043306030690021C8F2800100EA5C
:10376000010E591E4FF47E42236902EB4C224FF4A6
:10377000FE0505EB034365696FF35F2192B24FF0DD
:10378000FE4000EB0560714403F4FE03114400F0B9
:10379000FE401944084430613068A16920F00C00F3
:1037A00008433060206A31680843306030684FF663
:1037B000F87120F0100030607069E269884340EAD7
:1037C000C2007061306840F01000306056F82C0C78
:1037D00040F0806046F82C0CFCF7F0FF044600BF78
:1037E00056F82C0C000144BF002070BDFCF7E6FF2A
:1037F000001B032824BF032070BDF1E770B540F61D
:103800003046C4F2026656F8301C044621F080505F
:1038100046F8300CFCF7D2FF054600BF56F8300CD6
:10382000800007D5FCF7CAFF401B022884BF032095
:1038300070BDF3E7306840F60371884394E80E10DA
:103840006FF0FF0505EB02220843104330607069FA
:103850000021C8F2800100EA010E591E4FF47E4299
:10386000236902EB4C224FF4FE0505EB0343656927
:103870006FF35F2192B24FF0FE4000EB05607144A0
:1038800003F4FE03114400F0FE4019440844706143
:103890003068A16920F00C0008433060206A31686C
:1038A0000843306030684FF6F87120F01000306047
:1038B000B069E269884340EAC200B061306840F014
:1038C0001000306056F8300C40F0805046F8300C54
:1038D000FCF774FF044600BF56F8300C800044BF6C
:1038E000002070BDFCF76AFF001B032824BF0320E3
:1038F00070BDF1E7016840F26F32D1F814C08B69F6
:1039000043F008038B618B6943F010038B610B68F4
:1039100023F001030B600B6923EA02020A618A6843
:1039200022F440428A6090F889305FEA8C620BD5BD
:10393000042B09D0D0F88C2042F08002C0F88C20F3
:103940008A6942F020028A6190F889305FEA4C620D
:103950000BD5032B09D0D0F88C2042F00402C0F81C
:103960008C208A6942F040028A615FEA8C5209D455
:103970005FEACC5213D40021A0F86A10A0F87210AC
:10398000704700BFD0F88C2042F00102C0F88C20B4
:103990008A6942F400728A615FEACC52EBD5D0F8B2
:1039A0008C2042F00802C0F88C208A6942F48072B0
:1039B0008A610021A0F86A10A0F872107047000018
:1039C00070470000FCF70ABFB0B59EB006A80830EB
:1039D0003021FCF7B9FC00244FF40030CDE9044459
:1039E000CDE90244CDE90044FCF7D6FF30BB01200D
:1039F0004FF480310325069007910221CDE915503F
:103A00001420CDE918010C20CDE91C0406A814915E
:103A10001794CDE91A11FDF797FD78B91F20CDE96C
:103A200000050020CDE90200CDE90400684602212E
:103A3000FDF770FB002804BF1EB0B0BDFCF746FDCB
:103A40004EF6885CCEF2000CDCF80010012241F446
:103A50007001CCF8001040F60041C4F202610A6027
:103A60000022CA610A624A620B684FF6FF70CEF606
:103A7000F620184008608A62086820F480200860F8
:103A80004FF000600A654CF8800C7047FEE70000BC
:103A900090B04FF6CE75C0F201054FF6FF78FCF7F7
:103AA000ABFEFFF791FFFFF77DFDFFF7DFFDFFF7AF
:103AB000D3FDFCF7AFFC0120FEF758FF40F2700188
:103AC000C2F200010888498844190D4431220138A6
:103AD000013902EB540602EB550782B28BB24FF06C
:103AE000000C00200021CDF800C0FEF715FFC4F344
:103AF0004F00C5F34F01B2B2BBB2CDF80080FEF764
:103B00000BFF4CF6CD4A4FF0FF36CCF6CC4A29E0FD
:103B100040F6B830FCF724FD40F27001C2F200011B
:103B20000888498800EB090401EB090531220138B6
:103B3000013902EB540802EB550982B28BB2002026
:103B4000002100270097FEF7E7FEC4F34F00C5F3FE
:103B50004F011FFA88F21FFA89F30096FEF7DCFE88
:103B60004FF0FF3640F6B830FCF7FAFC40F2700731
:103B70000020C2F2000700BF798800F1010800FBB5
:103B800001F208FB01F1A2FB0A23A1FB0A1239880A
:103B900006EBD205A1FB0A1206EBD20100F00106EA
:103BA000701EC3F3CF04ADB21FFA80F98AB20020B1
:103BB00021462B464FF0FF3BCDF80090FEF7ACFEC0
:103BC000388808F00102A0FB0A01C8080BEB91013C
:103BD000013A97B28AB221462B46009740F270070D
:103BE000C2F20007FEF798FE38882B4600EB400132
:103BF000A0FB0A02A1FB0A010BEBD10190088AB2DB
:103C00002146CDF80090FEF787FE39882B4601EB60
:103C100041008900A0FB0A02D008A1FB0A120BEBAD
:103C2000D20172421FFA82FB8AB221464FF0FF3660
:103C3000CDF800B0FEF770FE38882B468100A1FB5E
:103C40000A1206EB5001D0088AB22146CDF8009046
:103C5000FEF762FE38882B4600EB40014008490021
:103C6000A1FB0A1206EBD201CDF800B08AB22146C0
:103C7000FEF752FE38882B4600EB4001C0EBC00037
:103C80004900A1FB0A12A0FB0A0106EBD101D008F2
:103C90008AB22146CDF80090FEF73EFE38882B46CA
:103CA000C0EBC001C000A1FB0A12A0FB0A0106EB99
:103CB000D101D0088AB22146CDF800B0FEF72CFE23
:103CC00038882B46C10000EBC000A1FB0A12A0FB04
:103CD0000A0106EBD101D0088AB22146CDF8009046
:103CE000FEF71AFE38882B4600EBC001CDF800B075
:103CF000A1FB0A12411EC2F3CF008AB22146FEF791
:103D00000BFEB8F10A0F40467FF436AF40F6B830EC
:103D1000FCF726FC38884FF6CE79C0F2010909EB92
:103D20000001A1F15A06798872080F9209EB01028D
:103D3000823A01380139550882B28BB20024002042
:103D400000210094FEF7E8FD132000EB56000FF26F
:103D5000441B0E90142000EB56000D90272000EB22
:103D600056000C90282000EB56000B903B2000EBF7
:103D700056000A903C2000EB560009904F2000EBC3
:103D800056000890502000EB56000790632000EB8F
:103D900056000690642000EB56000590772000EB5B
:103DA00056000490782000EB560003908B2000EB27
:103DB00056004FF6FF76029006E000BF0134092C52
:103DC00005F114053FF4A4AE1BF8047005F11308C7
:103DD000780609D50F980E9A80B2A9B292B21FFA4E
:103DE00088F30096FEF798FDB8060BD4F80615D4B4
:103DF00038071FD4780729D4B80733D4F807DDD0A3
:103E00003CE000BF0D980C9A80B2A9B292B21FFAA2
:103E100088F30096FEF780FDF806E9D50B980A9A1C
:103E200080B2A9B292B21FFA88F30096FEF774FD31
:103E30003807DFD50998089A80B2A9B292B21FFA62
:103E400088F30096FEF768FD7807D5D50798069A9F
:103E500080B2A9B292B21FFA88F30096FEF75CFD19
:103E6000B807CBD50598049A80B2A9B292B21FFACE
:103E700088F30096FEF750FDF8079FD00398029A4A
:103E800080B2A9B292B21FFA88F30096FEF744FD01
:103E900094E700BF1C2241417F41414141000000A5
:103EA000F1EE100A4FF6FF71C0F2C03120EA0100B6
:103EB00040F04070E1EE100A704700000000000082
:103EC0000000010203040607080900000000024286
:103ED0000100000000000242030000000000024256
:103EE000060000000004024201000000000402423B
:103EF0000A0000000008024202000000000C02421A
:103F00000D000000000C0242020000000008024206
:103F10000A00000000040242000000000008024203
:103F20000C000000000402420300000000040242F2
:103F300004000000001002420000000000100242D5
:103F4000020000000010024203000000006CDC02CE
:103F500000366E010024F400001BB70000093D008C
:103F600080841E00504B140040420F0000E02E00E1
:103F70000070170000A00F0000B80B00801A0600A8
:103F8000400D030088070200A0860100B03F000832
:103F900000000020100000009C020008C03F000844
:103FA0001000002000090000BC0200080000000012
:103FB000010000001000000000093D0000000000AA
:0400000508000239B4
:00000001FF
